S02B0000544849524450415254595F4C5749505F5241575F42415349435F485454505F4558414D504C45312EBB
S214400000F84D4020A90D4000A70D4000A70D400028
S214400010A70D4000A70D4000A70D400000000000BF
S214400020000000000000000000000000A70D400097
S214400030A70D400000000000A70D4000A70D40009F
S214400040A70D4000A70D4000A70D4000A70D40009B
S214400050A70D4000A70D4000A70D4000A70D40008B
S214400060A70D400000000000290A40003D0A40005D
S214400070510A4000A70D4000A70D4000A70D4000C4
S214400080650A4000790A4000A70D4000A70D4000D1
S214400090A70D4000A70D4000A70D40009D6B4000F7
S2144000A0A70D4000A70D4000A70D4000A70D40003B
S2144000B0A70D4000A70D4000A70D4000A70D40002B
S2144000C0A70D4000A70D4000A70D4000A70D40001B
S2144000D000000000A70D4000000000009D644000A6
S2144000E0A70D4000A70D4000A70D4000A70D4000FB
S2144000F0A70D4000A70D4000A70D4000A70D4000EB
S214400100A70D4000A70D4000A70D4000A70D4000DA
S214400110A70D4000000000000000000000000000A6
S214400120A70D4000A70D4000A70D4000A70D4000BA
S214400130A70D400000000000A70D4000A70D40009E
S214400140000000000000000000000000000000006A
S214400150A70D4000A70D4000A70D400010B5054C68
S214400160237833B9044B13B10448AFF3008001231E
S214400170237010BDE00940200000000078B3400026
S2144001800C4B43B10C480D4910B5AFF300800C48FA
S214400190036823B910BD0A48036833B97047094B52
S2144001A0002BF7D0BDE810401847064B002BF5D083
S2144001B0184700BF0000000078B34000E409402024
S2144001C078B340000000000010B51048104B984728
S2144001D03E2100200F4B98470F4CA0470028FCD0EC
S2144001E00E4B98470E4A0F4B9A620F4CA04700287A
S2144001F0FCD002200D4B984710200D4B98470D4BD6
S21440020098470D48024B984710BD00BF000E270781
S2144002107D0F4000290B40007D0B40008D0B4000B9
S214400220013F182000060E409D0B40008D0A4000FE
S214400230C50A4000710E400080D1F0082DE9F0411B
S21440024080B90C469046002A0FDD8F18084E094D9F
S214400250306821462B6898470134BC42F8D1404666
S214400260BDE8F0814FF0FF38F9E78046F7E700BF7A
S214400270641E40205C1E40200138022815D82DE917
S214400280F0410E4614469AB10D46DFF838800C4FC2
S214400290D8F8000015F8011B3B68984700280ADB91
S2144002A0A81B013CF4D1BDE8F0814FF0FF30704709
S2144002B01046BDE8F0814FF0FF30BDE8F08100BF4A
S2144002C0601E4020641E402010B54FF400423B4B59
S2144002D05A60A3F545633A4A5A60A2F580725A605E
S2144002E0BFF34F8FBFF36F8F364BD3F8902222F079
S2144002F00102C3F89022D3F8942222F00102C3F8F8
S2144003009422BFF34F8FBFF36F8F0A202E4CA04727
S2144003100B20A0470C20A0471020A0471120A04744
S2144003202A4B4FF480721A61C3F8A0201A63A3F5D3
S21440033080634FF400625A61C3F8A0205A66C3F83F
S21440034090205A651A62C3F88420196F21F4006120
S2144003501967596F21F400615967C3F8C020C3F884
S214400360D420C3F8B0204FF400121A66C3F8902089
S2144003705A655A62C3F88020196F21F40011196734
S214400380596F21F4001159675A60114AD2F8143156
S21440039043F01003C2F814310E4B10221A66C3F80D
S2144003A090205A655A62C3F88020196F1143196726
S2144003B0596F114359675A6010BD00BF50180E4020
S2144003C00C08005A00ED00E0AD0B400000120E4055
S2144003D00080084000100E40F0B583B004460F463B
S2144003E01646036843F01003036001AB0122364D06
S2144003F0A84758B9019B13F0040F0DD1236823F08A
S21440040010032360FF23184603B0F0BD034622685E
S21440041022F010022260F6E72EB9236823F010037C
S21440042023603346EFE76B461E2239462046264D6C
S214400430A847034650B9019A12F4805F0BD0009942
S21440044011F0050F0CBF0121002105E0226822F0C3
S21440045010022260D7E7012112F4005F03D0009813
S21440046010F0020F27D112F4006F03D0009A12F05A
S214400470010F11D191B10122616841F00101616023
S214400480A2B1626842F002026260226822F0100264
S2144004902260B8E71A46EFE71A4600E00122616894
S2144004A021F001016160EBE71A46F8E7626822F046
S2144004B002026260E9E712F4006FEBD0009A12F095
S2144004C0010FF1D11A46D7E72D0840002DE9F0413B
S2144004D082B004460D46036843F01003036001AB48
S2144004E000225D4EB04740B10346226822F010021B
S2144004F02260184602B0BDE8F081019B23F4B04369
S21440050043F480630193002229462046534EB04769
S214400510034620B1226822F010022260E9E740F24A
S214400520E1130422294620464C4EB047034620B1EC
S214400530226822F010022260DBE701AB0022294647
S2144005402046454EB047034620B1226822F01002AE
S2144005502260CEE7019B43F4445301930022294690
S21440056020463E4EB047034620B1226822F0100295
S2144005702260BEE7019B23F4806343F4007301933B
S214400580002229462046354EB0470346B0B9344E81
S2144005904FF00108304F01AB424629462046B84747
S2144005A0034680B9019B13F0200F11D1013EF2D1D2
S2144005B0236823F01003236001239AE7226822F081
S2144005C01002226095E7226822F01002226090E72F
S2144005D06B460522294620461F4DA847034680B94C
S2144005E0009A12F4807F13D112F0400F2CD112F0F3
S2144005F0800F08BF024609D1616821F001016160A1
S2144006000BE0226822F01002226072E7024600E009
S2144006100122616841F001016160BAB1626842F04E
S21440062002026260E26822F00102E2600D4A11684E
S21440063041F008011160116841F004011160226820
S21440064022F01002226054E70122D5E7626822F0C9
S21440065002026260E6E700BF2D0840008D084000B9
S21440066040420F00000005402DE9F04383B00546A8
S2144006708946036843F0100303604FF4004302AE1C
S21440068046F8043D00220E4CA0470A244FF00008CE
S2144006900C4F3346424649462846B847013C019BE4
S2144006A013F4004F01D0002CF3D12B6823F0100335
S2144006B02B60B4FA84F0400903B0BDE8F08300BF75
S2144006C08D0840002D0840002DE9F04385B00646D1
S2144006D08846154601240094002322464FF4806144
S2144006E04348444FB84722464FF480414248434B24
S2144006F0984740F2FF324FF000614148414B9847DF
S21440070041464148414B9847414B9D425DD8414BFD
S2144007109D420FD8404B9D423ED8404B9D423ED8CE
S2144007203F4B9D423ED83F4B9D428CBF4FF480236B
S214400730002301E04FF4A013726822F4E0127260C6
S21440074075681D43756004AB002243F8042D32687B
S21440075042F010023260022241463046324CA047F8
S214400760039B222B35D0444620254FF002092E4FBE
S214400770013404F01F0403AB4A4621463046B847CE
S214400780039B222B11D06B1E13F0FF05F0D133686C
S21440079023F01003336018E04FF48013CCE74FF497
S2144007A04023C9E74FF40023C6E7336823F010031D
S2144007B0336003AB0122214630461B4DA847A04577
S2144007C003D041463046114B9847002005B0BDE85F
S2144007D0F083336823F010033360B8F1FF0FF4D092
S2144007E003AB0122414630460F4CA047EDE700BF21
S2144007F000120E40A9094000000E0E40730940004A
S21440080000140E40E1084000000005406906400024
S214400810001C4E0E00688909000E270700B4C40469
S214400820005A6202002D31012D08400010B483B0FA
S214400830846814F0040FFBD0920402F4F804114AC2
S2144008402243C90501F078610A43426300220192BF
S2144008500D49826812F0040F07D1019A01320192C5
S214400860019A8A42F5D9012007E0826812F0040F07
S214400870FBD0426B92B21A60002003B05DF8044B86
S214400880704700BF000002603F420F0010B483B0C4
S214400890846814F0040FFBD0920402F4F8040E4A65
S2144008A02243C90501F078610A439BB21A4342636A
S2144008B000230193094A836813F0040F07D1019B74
S2144008C001330193019B9342F5D9012000E00020BB
S2144008D003B05DF8044B7047000002503F420F00E3
S2144008E04264B1F1C05F3AD013D8B1F1006F25D061
S2144008F0B1F1805F0AD1036F13430367436F416FC3
S2144009000B4023EA02034367426070470029FBD14D
S2144009107047B1F1205F21D009D8B1F1005FF3D123
S214400920036F13430367436F13434367ECE7B1F129
S214400930405F13D0B1F1605F10D0E5E710B4016FAF
S214400940046FD34321401C4619400167436F416FF3
S2144009500B402340436742605DF8044B7047036F8B
S214400960016F0B4023EA02030367436F1343436759
S214400970CAE7416412F0010F0DD1016612F00A0F6A
S2144009800BD0016212F0020F09D112F0080F08D006
S214400990C0F8841005E04166F0E74162F2E7C0F82F
S2144009A0801041610160704710B4019C41644CB9AD
S2144009B001664BB101654AB94163016101605DF86A
S2144009C0044B70474166F4E74165F4E70163F4E79A
S2144009D0C06C7047806C70472DE9F04104468846ED
S2144009E00E4B9847054620460D4B9847054013D07A
S2144009F00C4C04F1600603E0B4420DD010345DB1F7
S214400A0020684045F8D161682942F5D0E3689847A8
S214400A10636825EA0305EFE7BDE8F081D1094000A9
S214400A20D5094000FC09402008B50A210148024B80
S214400A30984708BD000E0E40D909400008B50B2166
S214400A400148024B984708BD00100E40D9094000A7
S214400A5008B50C210148024B984708BD00120E40CD
S214400A60D909400008B510210148024B984708BDF7
S214400A7000140E40D909400008B511210148024B28
S214400A80984708BD00160E40D9094000032811D0EB
S214400A90042812D002280CBF4FF480710021084A67
S214400AA0136B23F440730B431363936E13F0080FDA
S214400AB0FBD070474FF44071F1E74FF40071EEE71A
S214400AC000060E40174A136B23F07003184310635A
S214400AD0936E13F0080F0AD14FF4805311498A6E73
S214400AE012F0080F03D1013BF9D1012070470D4A9F
S214400AF0136B23F0030343F002031363936E13F068
S214400B00080F0AD14FF4805306498A6E12F0080F38
S214400B1005D1013BF9D101207047002070470020E5
S214400B20704700BF00060E40A0B90E48036A09028F
S214400B3089B20D4A1A400D4B1343194301620246CF
S214400B40936E13F0010FFBD0064A116A084B0B4315
S214400B501362704703490B6A064A1A40064B134312
S214400B600B62704700060E40FCFFC8FF01003700CE
S214400B7000003701FCFFC8FE02003701024B986EAA
S214400B8000F48030704700BF00060E404FF0005221
S214400B90014B9A62704700BF00060E40024B986EAB
S214400BA000F00200704700BF00060E4000F07F00D5
S214400BB0054BC3F80C01D3F80C2142F01022C3F8C1
S214400BC00C210020704700BF00060E4010B489017B
S214400BD04318022444504FF0FF319962196A5A6014
S214400BE05DF8044B7047890105234350704700EB7E
S214400BF08111CA61704700EB81114A627047F0B4B8
S214400C0086B002240194082402942024039480246D
S214400C1004940A9CE40B0594B0EB510F14D84C0C8A
S214400C20A04217D2012501AF57F82540B1FBF4F496
S214400C30260C84420AD386420DD90135052DF3D1C0
S214400C40002006B0F0BC70470020FAE70020F8E726
S214400C500120F6E700252AB106A901EB850151F8E7
S214400C60141C1160002BF3D01D600120E9E7436996
S214400C7013F0020F02D0C161002070470120704778
S214400C80436913F0010F03D083690B70002070474F
S214400C900120704710B40B01934214D9C9004B0889
S214400CA003EBC202B2FBF1F2D3085C1E4FF6FE71B4
S214400CB08C4201D9012017E0416841F4002141608F
S214400CC00CE0012010E0590801EBC202B2FBF3F23F
S214400CD0D3085C1E4FF6FE718C42F2D8120402F422
S214400CE0E0221A43026200205DF8044B7047000081
S214400CF0084BC0F8E4300023436043628362882395
S214400D000360242303604FF4807303604FF4002392
S214400D10036070470041535570B505460C4616466D
S214400D200F4B984700220F4B1A60A4B132462168F9
S214400D3028460D4B9847024678B96368A1680B432E
S214400D4021690B43E1680B4306490B6069680B4316
S214400D506B60104670BD0122FBE70122F9E700BF39
S214400D60F10C40006C0A4020950C40004023036084
S214400D707047102303607047436913F0020F04D096
S214400D80C1F30801C16100207047012070474369E4
S214400D9013F0010F05D08369C3F308030B600020EE
S214400DA0704701207047FEE700B583B0254B264AC2
S214400DB09A4210D0254B234A9A420CD2013B9B1AAA
S214400DC023F00303043313441F4951F8040B42F83D
S214400DD0040B9A42F9D11E4B1E4A9A420AD2013B54
S214400DE09B1A23F0030304331344002142F8041BE8
S214400DF09342FBD1184A194B23F07F039360EFF3DD
S214400E001083B3FA83F35B09019372B6BFF35F8F27
S214400E100022134B1A700199124A136843F4700368
S214400E201360BFF34F8FBFF36F8F29B101220C4B76
S214400E301A70BFF35F8F62B60B4B98470B4B9847C1
S214400E40FEE700BF0000402078B34000E0094020A5
S214400E50F8494020E009402000ED00E00000400056
S214400E600000402088ED00E0E96E4000156E40002E
S214400E703B4B1B6B03F00303012B1DD083B1022BAE
S214400E8036D0374B1B6B03F07003702B5FD0344B60
S214400E901A6B3449C2F302120B68D3400B6070479A
S214400EA0314B5B6913F0800F14BF4FF400424FF490
S214400EB0FA422C4B1A60E4E7294B1B6A13F0807FFA
S214400EC003D02A4A274B1A60DBE7294A254B1A608B
S214400ED0234B1B6A03F07003102B05D0202BD0D178
S214400EE0224A204B1A60CCE7224A1E4B1A60C8E7BB
S214400EF01B4B1B6A13F0807F16D01C4A194B1A6096
S214400F00174B1B6B03F00303022BBAD1144A916AAA
S214400F10926A1448C1F30A41036801FB0333D2B214
S214400F20B3FBF2F30360ACE7114A0E4B1A600C4B6E
S214400F301B6A03F07003102B05D0202BE0D10B4A20
S214400F40084B1A60DCE70B4A064B1A60D8E7054A9E
S214400F5013680949A1FB03135B081360704700BF81
S214400F6000060E400400402010180E40001BB7003C
S214400F7000093D0000127A00ABAAAAAA164B984276
S214400F8013D9164B984215D9154B984216D9154B7E
S214400F90984217D9144B984218D9144B984294BF8C
S214400FA0134A144A144B1A6070474FF08062124B33
S214400FB01A607047114A104B1A607047104A0E4B21
S214400FC01A6070470F4A0C4B1A6070474FF0042265
S214400FD0094B1A60704700BFBFF35E017FE7BD0252
S214400FE03FDB1C04FFCE7B05BFC2DA067FB639085E
S214400FF00005000400060004000C0E40000100043A
S21440100000020004000300040A4B1B6853B1094B5E
S2144010101B681A180849914208DB1046054A1060BA
S21440102018467047054A034B1A60F0E74FF0FF300A
S214401030704700BF700A4020FCFF4520F84F402014
S2144010404FF0FF3070474FF400534B60002070471E
S214401050012070470020704740BA80B27047030EA8
S21440106043EA0063020202F47F021343000A00F4DC
S2144010707F401843704770B483B00023ADF8063005
S21440108010F0010630D099422EDD451C03788DF8CD
S21440109007300139012929DD28460B46002230F861
S2144010A0024B2244023B012BF9DC023921F00103BA
S2144010B002331D4401F00101002902DD2B788DF832
S2144010C00630BDF80600024490B200EB124290B2E1
S2144010D000EB124026B103029BB2C0F30720184330
S2144010E080B203B070BC70470546D3E70022E3E702
S2144010F02DE9F843894690461C68089B1A68130CED
S21440110013FA82F313FA84F303EB14439CB204EB12
S21440111013439CB204EB1344F8B105460026184F1F
S21440112001E02D689DB169896868B8470444A0B25B
S21440113000EB14446B8913F0010FF2D0C6F10106A0
S214401140F6B223029BB2C4F307241C43E9E726B158
S21440115023029BB2C4F307241C434846094EB047BB
S21440116005464046B04728440444A0B200EB144429
S214401170A0B200EB1440C04380B2BDE8F88300BF85
S214401180771040005910400010B582B0049C00947F
S214401190014CA04702B010BDF110400008B5024B0C
S2144011A09847C04380B208BD77104000F8B518B3E2
S2144011B0054600263446114F01E02D689DB16989E9
S2144011C06868B847204484B204EB10446B8913F037
S2144011D0010FF2D0C6F10106F6B223029BB2C4F369
S2144011E007241C43E9E726B123029BB2C4F3072435
S2144011F01C43E04380B2F8BD0024FAE77710400075
S21440120008B5064B9847064B9847064B9847064BFB
S2144012109847064B9847064B984708BDD926400046
S21440122091294000192A4000E56040008D3040007A
S2144012308960400010B5044600EB4002094B53F865
S214401240320038B1084B984704EB4403DB000021DA
S214401250044AD15004EB4404024B03EBC40400237D
S214401260237510BD740A4020192C40002DE9F04F1C
S21440127083B03A4A00239E469B4698460A26344602
S214401280B446B146019114E07FB120B101688A4668
S21440129069688A4515D0012F15D0012F05D96D8A6A
S2144012A0754502D34FFA83FCAE46013318320A2BFB
S2144012B018D01546177D0A2CE6D1002FE4D15CB233
S2144012C0F3E758B228E02F682FB16D8A4545ECD336
S2144012D05EB2A846E9E76D8A5D45E6D34FFA83F9E4
S2144012E0AB46E2E7019911F0020F2ED105460A2CD3
S2144012F015D0092C16DCE4B235B1296804EB44035A
S214401300164A02EBC303596004EB4402134B03EB4B
S214401310C20300225A8260B203B0BDE8F08F11F0DB
S214401320010F15D0BCF1090F05DC5FFA8CF420469E
S2144013300B4B9847E0E7B9F1090F02DC5FFA89F4F6
S214401340F5E7092E07DCF4B2F1E74FF0FF30E3E7AC
S2144013504FF0FF30E0E74FF0FF30DDE7740A402003
S214401360351240002DE9F04782B0804689469246C5
S2144013701F460B9D00221C2102201C4B984788B319
S21440138006464468BDF83400194B9847E0803B68F1
S214401390A360BB88A3812B68C4F81230AB88E38275
S2144013A00A9B1B68C4F80E300C9B1B68A361002583
S2144013B02570012363700823A370E570062323710C
S2144013C00423637140F60603009353464A4631466B
S2144013D04046084CA0473046074B9847284602B040
S2144013E0BDE8F0874FF0FF30F9E700BF712C4000B2
S2144013F05910400065634000192C4000002900F059
S21440140093802DE9F04786B00E46044645682B8803
S214401410B3F5807F05D02046444B984706B0BDE8DC
S214401420F0872B79062BF6D16B79042BF3D16B889A
S214401430082BF0D1D5F80E000590AA694B68002B12
S2144014406BD09A420CBF4FF001084FF0000805F1F0
S214401450080750D14FF00108C146002840D0314619
S214401460334B984700283BD1059B03F0F003E02B15
S21440147036D03246494605A82E4B9847021E2FDBEB
S214401480DFF8B8E053009918C9000EEB010C0220B3
S2144014908CF81400CCF808600B460C330EEB0309AE
S2144014A038684EF80300BB88A9F804300023ACF82F
S2144014B012305EF80190B9F1000F11D00B460021B2
S2144014C04EF803104FF4006300933B4606F12902A2
S2144014D049463046DFF868A0D0474846134B984701
S2144014E0EB88B3F5807F02D1B8F1000F06D12046D5
S2144014F00E4B984792E74FF00209AEE706F12901F6
S2144015000223039305AB02930197331D00930B46CA
S2144015103A463046084DA847E9E705F108074FF038
S21440152000084FF0020998E7704700BF192C4000AA
S214401530E51E40006D12400065134000740A4020CE
S2144015406563400010B584B0034600F129040122CB
S21440155003920291054A0192043300932346044ABB
S2144015602146044CA04704B010BD00BFB0A44000C4
S214401570A8A44000651340002DE9F041174C002513
S214401580174EDFF86080022704E0B0470135183474
S2144015900A2D21D02846A646227C002AF6D0E3898A
S2144015A001339BB2E381B3F5967FEED2042B01D98B
S2144015B0012AEAD0032A08D0042A0AD0012AE5D113
S2144015C07146DEF80400C047E0E704238EF810308A
S2144015D0DCE78EF81070D9E7BDE8F081780A402045
S2144015E03512400045154000F0B585B005460E461C
S2144015F0144602EB42022A4B03EBC2031B7D022B2E
S21440160011D004EB4404264B03EBC4044FF40063B0
S214401610009304F10C0305F1290231462846214C7B
S214401620A04705B0F0BD13461D4A02EBC3035B8AD4
S214401630B3F58E7F22D8B3F5877FE2D304EB440020
S214401640C00005F12901164A00F10C070123039357
S214401650043010440290144B01932B1D00930B460C
S2144016603A442846114FB8470028CAD104EB4403F1
S2144016700B4A02EBC30303221A75C2E704EB44018C
S21440168002EBC10104310A4B98470028B9D104EB5C
S2144016904403034A02EBC30303221A75B1E700BFB3
S2144016A0740A402065634000B0A4400065134000C3
S2144016B045154000F0B583B006460D461746014630
S2144016C02868464B9847002865D12B68002B18BFE2
S2144016D0002D63D003F0F003E02B5FD032460121AB
S2144016E028463F4B9847041E5BDB04EB44033D4AC9
S2144016F002EBC3031B7D63B904EB440302EBC30355
S21440170001221A759E6029463046374B98471FB9C6
S2144017103FE04FB34FF0FF3004EB4403314A02EB57
S214401720C3031B7D012B24D8012B32D1002F3CD084
S2144017303B7B012B37D13B461B68002B3BD01A7BAB
S214401740012AF9D0002219890220284B98470546DD
S21440175038B139462846264B984780B32846254B0D
S21440176098474FF0FF3014E0294630461E4B9847C6
S2144017700FE0214B1C7004EB440402EBC4034FF40F
S214401780006200920C3306F12902394630461B4C63
S214401790A04703B0F0BD6FF00F00FAE76FF00F0000
S2144017A0F7E72046F5E73B46CCE73846144B9847E4
S2144017B04FF0FF30EDE73846114B98473D4604EB77
S2144017C04403084A52F8330008B10A4B984704EBE2
S2144017D04404044A42F834500020DAE7E51E40004C
S2144017E06D124000740A402045154000712C4000A0
S2144017F0792E4000192C4000640B40206563400061
S2144018003B2E400070B584B005460E461446014651
S2144018101068384B984700285CD1236803F0F002E4
S214401820E02A23D06A685A40A9680A4209D09BB287
S2144018304FF6A962934204D0EB68002B56D005F1D0
S2144018400C042D4B1A7802EB42012C4B03EBC103E0
S2144018501B7D012B07D90B46284901EBC3032168A2
S2144018605B68994218D0254B00221EE001238DF874
S214401870083000238DF809305E238DF80A306378EF
S21440188003F07F038DF80B30A3788DF80C30E378A7
S2144018908DF80D3002AB1EE031462846184B98476F
S2144018A022E0013218330A2A0ED0197D0129F8D9D0
S2144018B0206859688842F4D1D2B20F4B1A7031462C
S2144018C028460F4B98470FE03246214628460D4B98
S2144018D0984709E00C4B4FF40062009205F129024C
S2144018E031462846094CA04704B070BD6FF003004F
S2144018F0FAE700BFE51E4000640B4020740A402013
S214401900E9154000B5164000A8A4400065634000B5
S2144019102DE9F04186B00646884617460022242127
S2144019200120214B984700283BD00546D6F804E0D6
S214401930446884F800806770002323716371A37144
S214401940E371476873681E6858689968D3F80CC096
S214401950BE60F8603961C7F814C01E695869996955
S214401960BE61F8613962DEF80C3006A840F8043DE6
S2144019700E4B9847074688B10026A670E6706989E0
S21440198020460B4B984760800297012301930096B0
S214401990FF2305AA31462846064CA0472846064B54
S2144019A0984706B0BDE8F081712C40005D1B4000B2
S2144019B09D114000B51E4000192C40002DE9F04313
S2144019C085B00546524B9E68347804F00F04A40058
S2144019D0132C16D90F464389032B12D943681B781C
S2144019E0082B40F090804A4B586900F0F003E02BFB
S2144019F028D0474B1968474B984718BB2B89072B6D
S214401A0005D82846444B984705B0BDE8F08328469D
S214401A10424B9847D0B904F10E012846404B9847B0
S214401A20002833D029892144002289B202203D4B28
S214401A309847804630B1428904F108039A4209D259
S214401A40354B98472846344B9847DDE72846324B77
S214401A509847D9E7224631464068334B984761421B
S214401A6040462F4B984718B140462B4B9847E9E7DE
S214401A70294640462D4B984718B14046264B984736
S214401A80E0E72846244B9847454608E04FF6F27173
S214401A90091B09B22846224B98470028D2D1D5F8D0
S214401AA00480214628461E4B984760BB6E68184BFC
S214401AB05A69F2601B693361002388F80030B8F831
S214401AC002304FF6F77293428CBF09330833A8F8BA
S214401AD002304FF0FF0986F808904FF0000886F86D
S214401AE00A8086F80B8021463046114B9847708115
S214401AF0029701230193CDF800804B4642460D499C
S214401B0028460D4CA0472846034B98477CE700BF25
S214401B10681E4020E51E4000192C4000AD114000D4
S214401B20F92B4000712C4000C16F4000792E4000D8
S214401B309D1140007C1E4020B51E400008B50A4658
S214401B400321014B984708BD1119400008B50A46C5
S214401B500B21014B984708BD1119400030B4164B75
S214401B601B6893B9154B1B684BB193F82F2002F0B6
S214401B700502052A1ED15A68002A08BF00231846C7
S214401B8030BC70471B68002BECD093F82F2002F037
S214401B9005010529F6D159680029F3D0046861404B
S214401BA09D682942EBD012F0020FEBD1DA689442DE
S214401BB0E8D1E4E70023E2E770494020744940203A
S214401BC02DE9F84F054647683E783309042B04D084
S214401BD0694B98470020BDE8F88F884606F00F0608
S214401BE0B6007888654B984704462B8983421DD8B3
S214401BF06B89B3421FD32B89A3421CD3132E1AD909
S214401C00314638465E4B9847C8B93B695D4A536192
S214401C10F968116103F0F003E02B14D044464FF00E
S214401C200109DFF860A1DFF884B11FE001462846CD
S214401C30554B9847DCE728464F4B9847CAE7284617
S214401C404D4B9847C6E798F82F3013F0010F26D033
S214401C50D8F80430002B14BF4446002422E0246801
S214401C60444508BF24684FF00009DCB194F82F3093
S214401C7013F0010F09D063683BB1DAF814008342D1
S214401C8010D02146414B984760B9B9F1000FE6D0D5
S214401C909AF814307F2B04D0DBF80040E0E70024AD
S214401CA000E000244146374B1869384B98470028D7
S214401CB042D1344B1B6903F0F003E02B3CD0002CA0
S214401CC03ED0FB8823F0C0039BB23BB12846304B46
S214401CD09847054600283FF47DAF4768294A146078
S214401CE0C2F8048097603B7803F00F039B00938113
S214401CF071422846274B98477B7A062B31D0112BCA
S214401D0022D0012B32D021461E4B58691F4B984794
S214401D1070B91C4B5B6903F0F003E02B08D03146EA
S214401D2028461D4B98476F60022128461B4B984714
S214401D302846114B98470BE028460F4B984749E7F3
S214401D4028460D4B984745E741462846144B98474A
S214401D500C4B00221A605A609A609A811A615A6146
S214401D6038E7414628460F4B9847F1E74146284614
S214401D700D4B9847ECE700BF192C40005910400027
S214401D809D114000681E4020C52D4000E51E4000C5
S214401D905D214000F92B4000092C40003D1B4000CF
S214401DA0E960400069484000BD1940007049402045
S214401DB02DE9F04F87B0054601919DF840609DF8AB
S214401DC04490002A5DD0984617461421344B9847D5
S214401DD0002862D16C6884F8088084F8099049EA43
S214401DE008284FEA182848EA09293B6823619AB22E
S214401DF002924FEA134B45232370667036023343F4
S214401E0003932889274EB047824660800023A371FB
S214401E10E371DFF89C80B8F80000B047A080B8F8BF
S214401E2000300133A8F80030019B33B3019B1B6898
S214401E30E360E3681A0C12FA83F3039A1A441646D0
S214401E40029B1E445E444E44B24450441FFA80FAFD
S214401E500AEB104000EB1040C0436081129BDB8CC5
S214401E6013B12A899A4212D8129B5B693A46294690
S214401E701298984707B0BDE8F08F0B4B1B68E3609D
S214401E80D7E743681B6906AF47F8043DE6E73A469E
S214401E9012992846054B9847ECE76FF00100E9E7B2
S214401EA0F92B400059104000E4A34000952540001F
S214401EB0660B402030B585B00A9C15461AB109B16C
S214401EC00A6802B9211D02949DF8242001929DF8CB
S214401ED0202000922A46024CA04705B030BD00BFE5
S214401EE0B11D4000431E13F1030F12D891F82F3056
S214401EF013F0020F0FD04B6898420ED08A684340CA
S214401F0013420CD1D24332EA00030CBF012000201A
S214401F10704701207047002070470020704700201F
S214401F20704700002DE9F04F85B0019103680DF130
S214401F30100C4CF8043D0C464FF00008C146274FA5
S214401F4002F1010E4FF02E0B66469CF800304846D4
S214401F509A4600E02846A7FB0A31C90801EB8103F0
S214401F60AAEB4303451CEDB230330DF1100A824410
S214401F700AF8083C01F0FF0A0029EBD186F80090E9
S214401F800CF1010CADB108F10101424521DD02AB77
S214401F901D18631E20449E1C15F8014903F8014F86
S214401FA0984208D001317145F5D1002005B0BDE812
S214401FB0F08F4146264601F101088A420BDD741C2B
S214401FC086F800B004AB9C45BED100233370019820
S214401FD0ECE70020EAE70020E8E700BFCDCCCCCC19
S214401FE008B510220149024B984708BD680B4020AF
S214401FF0251F40002DE9F04781468A4645686B68B4
S2144020009A8822B30024D9F804606EB1DFF8948031
S2144020101F4F73681D683046C0470444A4B230461C
S214402020B8472E46002DF4D11A4B1B68994529D047
S214402030D9F80030CAF8003049460420164B984775
S214402040164A13881B1B13802046BDE8F0871B6882
S21440205043606A68034653F8081F5E689C68D86801
S214402060116056609460D06019691161012128465C
S2144020700B4B984728460B4B984704462846044B3C
S2144020809847C0E7D9F80020024B1A60D4E700BF53
S214402090192C40007C0B4020D1294000780B402072
S2144020A04D1B4000252E40002DE9F047054688464A
S2144020B000261B4FDFF86C9025E0D5F810A09A69F3
S2144020C052450ED1B3F80CA0AA88924509D101E03A
S2144020D0714618461A689E4672B113465A6962455A
S2144020E0EBD001340028F3D093F81FA0C27F92456E
S2144020F0F0D871461846EDE708B1C847064446454D
S2144021000ADA012C08DD3B6833B1D5F80CC0002450
S2144021102146A6462046E1E73046BDE8F08700BFA8
S2144021207C0B4020F51F40000A4B186888B170B5FC
S2144021300024094E04E005682146B047284638B1D9
S214402140C37F002BF7D0013BC37704460068F6E711
S21440215070BD70477C0B4020F51F40002DE9F04FC6
S21440216083B00646D0F8048098F8003003F00F039A
S214402170052B40F0B181B8F806009B4CA047C0F351
S2144021800C00C700B8F80200A04798F8005005F0C9
S2144021900F05A0EB8505ABB201933046934B9847AD
S2144021A08146934B1B8803440A2B06DC914B1C68E4
S2144021B0002C71D0D8F80C200FE0014640468E4BDC
S2144021C09847002800F08881894B1B884B440A2B8F
S2144021D0ECDD81E12468002C5ED063699342F9D13E
S2144021E0D8F81030A1699942F4D1A189B8F80430E2
S2144021F09942EFD1002C4FD0B8F806007A4B98475A
S214402200C0F30C00002878D0B8F8068018F02008F4
S2144022100AD1019BFB189BB29F4200F25D814FF6AC
S214402220EB72934200F25881D6F804A0BAF8020046
S2144022306D4DA8479AF8003003F00F03A0EB8300DB
S2144022401FFA80FBBAF80600A847C0F30C00C0008F
S214402250D6F804A000238AF800308AF801308AF8BD
S21440226002308AF80330AAF8040083441FFA8BFB36
S214402270AAF806B06268002A00F0AF8053689988D2
S2144022808842C0F0498100F01D81DA88824200F21F
S21440229019814FF0010C86E00420584B98470446BD
S2144022A0E8B1202200212046554B98470323E37788
S2144022B0504B1A6822601C60D8F80020D8F804E01A
S2144022C0D8F80800D8F80C10A260C4F80CE02061DA
S2144022D06161D8F81020A261002C95D1FCE04946F7
S2144022E04046454B9847814500F3F6800420434BD3
S2144022F0984704460028D4D1EEE0E0893A4B984708
S214402300C0F30C0000283FF47FAFD8F80020D8F880
S21440231004E0D8F80800D8F80C10A260C4F80CE026
S21440232020616161D8F81020A2616DE7CAF800E02C
S214402330002B00F0F680D9888842C0F0C38092888F
S2144023405A45C0F0BF801E60BAF804308B4218BFB2
S2144023504FF0000CB8F1000F04D0A37F13F0010F2C
S21440236000F0FC80BCF1000F4ED06368002B38D0E4
S2144023705B689B88002B45D1DAF80030002B43D0B1
S2144023805B689988BAF80620914240F092801A68B5
S214402390002A39D05268D9889388994240F08C8078
S2144023A01346F4E71346D3F800E0BEF1000F00F002
S2144023B0BD80DEF8042091888842B7D3884200F07A
S2144023C08180B2F806E086457CD8002BEAD0DB88D0
S2144023D08B4218BF4FF0000CE4E74FF0010C6660EC
S2144023E0B8E74FF0000C0FE059104000252E400093
S2144023F0780B40207C0B4020A9204000B1294000AB
S214402400F57040004FF0000C1CF1000318BF01238C
S21440241057490A889144A1F80090B8F1000F06D1B8
S214402420019A3A44A283A27F42F00102A277002B8F
S21440243070D0A38B1433A38363685E6835682346E5
S21440244053F8082F5F689868D96832607760B06044
S214402450F1601A693261A08B464B98477080002322
S214402460B371F371B372F37214213046424B9847FE
S214402470708167687DB16FF0130ADFF81091DFF85E
S21440248010816E6851462846C84729463846C04798
S2144024903568002DF5D1394B1A68944236D012B3C0
S2144024A013689C4256D003B31A6894421DD0134614
S2144024B0F9E74FF0000CA7E74FF0000CA4E74FF009
S2144024C0000CA1E730462E4B9847294A1388181A25
S2144024D0108030462B4B984730462A4B984700276B
S2144024E010E000239CE78CB1134622681A60214610
S2144024F00420254B98473846214B98471C4A13885A
S214402500181A1080384603B0BDE8F08F12681B4B8F
S2144025101A60ECE70027F5E7CAF800201A464FF0A5
S214402520010C93885B45CDD3666013E7002B3FF4E0
S21440253056AF1E60DA88BAF804309A423FF40AAFC3
S214402540B8F1000FBBD0A37F13F0010F04D04FF0BB
S214402550000C59E71346C8E7002359E7044B1A888E
S2144025609144A3F80090B8F1000FBAD00027C9E70D
S214402570780B4020591040009D1140007C0B4020B5
S214402580252E4000192C4000D1294000F92B400050
S214402590452E40002DE9F04F87B0D0F8048098F8DB
S2144025A0003003F00F03052B7DD104928A46044683
S2144025B00390CD8CB8F80600414B9847C0F30C0901
S2144025C010F4005F72D12489143CA4B2002C70D061
S2144025D0143D48BF0735EB1005939BB2DB000293D2
S2144025E014230193029BA342A8BF23469DB2002218
S2144025F029460120334B9847064600285BD0019B6E
S2144026002A4641680398304FB847019B184483B226
S2144026100193142130462D4B984700283DD17368CE
S214402620D8F80020D8F80470D8F80800D8F80C106D
S2144026301A605F609860D960D8F810201A61776891
S214402640C9F30C00BAF82630143B9C42C8BF40F48D
S2144026500050DFF86CB0D847F88005F1140080B21F
S214402660D84778800023BB72FB7214213846184B3B
S21440267098477881DAF81430049A3146504698479D
S2144026803046144B9847641BA4B2059B99441FFAE6
S21440269089F9002CA6D100200FE030460D4B984714
S2144026A04FF0FF3009E06FF0050006E06FF00500E0
S2144026B003E0002001E04FF0FF3007B0BDE8F08FA8
S2144026C059104000712C40005D2F4000F92B40000F
S2144026D09D114000192C40000A4B23F003030A4A80
S2144026E013604FF48051198000225A801A715A188C
S2144026F0064802600120107111805180044A136020
S214402700704700BF831E4020840B4020880B40202B
S214402710800B402000283BD00346214A1268904256
S21440272036D320490868834232D270B4A3F10801F8
S214402730002403F8044C1C4C2468A14201D21A4CD5
S214402740216033F8085C5419A1420ED0267966B948
S214402750A0420AD01448006884421AD0505B23F83E
S214402760080C505B10448C1A448033F8060C14183E
S214402770A1420CD0257955B90B4D2D68A9420BD0F6
S21440278033F8081C115233F8083C1A44508070BC89
S214402790704705480160E1E703490C60F0E700BF79
S2144027A0840B4020880B4020800B402003314FF69E
S2144027B0FC730B400C2B38BF0C23B3F5805F52D80C
S2144027C02B4A126882422BD82A490968884227D267
S2144027D0F0B4A0F10804A41AA4B230F8085CA5F13D
S2144027E00801091B89B299423FD318D05619377948
S2144027F0DFB9555B04F108010B449BB21E490968DA
S2144028008E420ED0D11800260E71D5524C8020F83C
S214402810083CD15AB1F5805F01D00A445380F0BCE1
S2144028207047D118144E3160ECE703F114058D4221
S214402830F5D804F108010B449BB2D1180E4D2D6813
S214402840A94201D20C4D296000250D7130F8085C74
S214402850D5524C8020F8083CD15AB1F5805FDED086
S2144028600A445380DBE7002070470020D7E700BFCC
S214402870840B4020880B4020800B4020002865D0E9
S214402880F0B5034603334FF6FC761E400C2E38BF99
S2144028900C26B6F5805F5BD82F4BD3F800C02F4B85
S2144028A01C68ACEB04039BB21A463746C6F5805507
S2144028B0AB424FD26FF0070E0FE001230371264B59
S2144028C01B68984230D00830F0BD034639E00346D6
S2144028D037E003881A46AB4236D2A0180179002961
S2144028E0F7D1AEEB0201A25A0A44BA42F1D306F13E
S2144028F014018A42E1D306F108021A4492B2A118A2
S21440290000250D710588A5524B8002800123037176
S214402910A35AB3F5805FD2D01C4462808445D2D19E
S2144029200379002BD1D003460D4A11688842CED099
S2144029300A4A14681B8823441A7912B18B42F9D18B
S2144029400B46054A1360BEE70020F0BD00207047E6
S2144029500020F0BD0020F0BD800B4020840B4020BE
S214402960880B4020836800221A604368033323F0B4
S214402970030342885AB10022816809681960816859
S2144029800B6001880B44013241889142F4DC704769
S21440299070B5054D2C1F1C35044E54F8040FB04737
S2144029A0AC42FAD170BD00BF48A440006529400043
S2144029B0072808D8054B53F820309B68186818B18C
S2144029C002681A6070470020704700BF48A4400065
S2144029D00B4649B1072807D8044A52F82020916888
S2144029E00968196092681360704700BF48A44000A9
S2144029F011F0010F0CD008B5436823B190F82F3082
S214402A0013F0080F00D108BD011D024B9847FAE7A6
S214402A10704700BF451540007047000070B582B053
S214402A200446D1B10E460B6801934268934212D0D9
S214402A30051D01A92846114B984701A92846104B69
S214402A40984733686360012120460E4B9847E369F8
S214402A500BB12046984702B070BD0B4B1B680193E4
S214402A6042689342F7D0051D01A92846034B984774
S214402A7001A92846024B98470023E3E7853D4000DE
S214402A8075624000F1294000E4A3400070B504465A
S214402A9016461D460B4609B10A6872B919462046C5
S214402AA00D4B98472EB13368A36025B12B68E36081
S214402AB070BD0023F8E70023F9E74EB13268A26004
S214402AC045B12A68E26019462046034B984770BDD8
S214402AD00022F4E70022F5E71D2A4000F8B5044638
S214402AE0002545608560C56080F82F50032680F835
S214402AF02460C561069D05620A4E35786F1C3770A6
S214402B0080F83250089D0561074DA8472046079B30
S214402B10984728B9054B1A6822601C602046F8BDC5
S214402B200020F8BDAC0B40208D2A40007049402064
S214402B30014B1860704700BF7449402090F82F3012
S214402B4013F0010F13D110B5044643F0010380F88B
S214402B502F30C36903B1984794F82F3013F0040F11
S214402B6000D110BD03212046014B9847F9E7704736
S214402B70F129400000B1C1617047002936D00B46AC
S214402B80002833D030B400290BDB8DB2017B44687B
S214402B9071B103290CD0013989B2012918D9012015
S214402BA014E04D42ADB24189A942EFD201200DE07A
S214402BB0E41A00F1100294421AD344609BB2428950
S214402BC01A444281028913440381002030BC704776
S214402BD0002B05DB002B0DDD62B1E41A4460EDE707
S214402BE04189A942F6D3E41A4460E7E700207047DB
S214402BF00120EBE70120E9E708B50022014B9847A2
S214402C0008BD00BF7B2B400008B50122014B98470A
S214402C1008BD00BF7B2B40002DE9F041F8B10146CE
S214402C200024114D4FF00608104E08E00720B0472C
S214402C3001E04046B0470134E4B2394687B1CB891B
S214402C40013B9BB2CB815BB90F680B7B032BEDD06E
S214402C50013B9BB2012BECD90846A847EBE7002482
S214402C602046BDE8F08100BF15274000D12940002E
S214402C702DE9F047042800F29780DFE800F00B03C8
S214402C8005070900222406E00E2404E0002402E0A2
S214402C90002400E0362417468846032A00F2868041
S214402CA0DFE802F0526E6E020720424B9847064617
S214402CB000283DD003230373002303600319133316
S214402CC023F003034360A0F80880033424F0030491
S214402CD0C4F5C064444528BF444644810123C381AB
S214402CE0A5B2A8EB0505002D57DD82464FF0070834
S214402CF0304F4FF003094046B8470446E0B180F8ED
S214402D000C90002343730360CAF80000ABB2038103
S214402D10B3F5C06F28BF4FF4C063438100F1100283
S214402D2042600122C281ED1A8246002DE3DC34E087
S214402D300122214B1A7034E001221F4B1A70304694
S214402D401E4B984726462CE004F1130020F0030063
S214402D50CB1C23F00302104480B2904228D3184B79
S214402D6098470646E8B10444133424F0030444600C
S214402D70A0F80880A0F80A800023036003730CE0E4
S214402D8006200C4B9847064658B100234360A0F8EF
S214402D900880A0F80A80036007730123F3810023AC
S214402DA073733046BDE8F0870026FAE70026F8E75A
S214402DB00026F6E7B129400078494020192C40000B
S214402DC07D28400002898A4226D938B50446438980
S214402DD099421FD90D46891AEB1A9DB223890B4496
S214402DE0238124686389AB42F6D3227B4AB99D424D
S214402DF007D063681B1BE91889B22046074B9847E3
S214402E00044665812581206808B1054B9847002314
S214402E10236038BD0D46E8E7704700BFAD27400049
S214402E20192C4000034630B10020013080B21B68A8
S214402E30002BFAD170470020704710B1C389013388
S214402E40C3817047B0B110B4044689B1026812B964
S214402E50024608E01A4623890889034423811368FA
S214402E601446002BF6D11389088903441381116058
S214402E705DF8044B70470000002869D02DE9F04704
S214402E800E46074600293FD002890B899A423FD317
S214402E904FF0000A5546DFF8C080D1460DE07B89EA
S214402EA0AB4225D0002E42D0728933899A4224D034
S214402EB01FB17A893B899A423FD07B897489591BD6
S214402EC0A4EB0A029142ACBF14465C1BA4B27868DD
S214402ED07168224651442844C0472544ADB2544404
S214402EE01FFA84FA73895345D9D83668CA46D6E756
S214402EF03F6807B986B94D46D4E73368002BD7D02C
S214402F006FF00500BDE8F0876FF00F00BDE8F08772
S214402F106FF00F00BDE8F0876FF00F00BDE8F08758
S214402F206FF00500BDE8F0870020BDE8F087002F71
S214402F30FAD07A893B899A4207D13B68002BEFD179
S214402F40002EBAD10020BDE8F0870020BDE8F0870B
S214402F506FF00F00704700BFC16F40002DE9F0478B
S214402F6041B3054692460F4640B33AB30026DFF8D3
S214402F705090B04616E06C89E41AA4B2544528BF77
S214402F805446696822461944B819C8472644B6B21A
S214402F90AAEB04041FFA84FA43462D68BAF1000FE0
S214402FA009D045B1002BE6D06A899A42E3D89B1AED
S214402FB09BB2F2E700263046BDE8F0870026FAE7E7
S214402FC0C16F4000F0B4164B18884FF480444FF65B
S214402FD0FF764FF4404704E0384606E0013CA4B292
S214402FE09CB1B042F8D0013080B20E4901F11005D4
S214402FF051F8043B1B6863B1DA8A8242EED0DB6844
S2144030003BB1DA8A8242FAD1E8E7054B18800020C5
S21440301003E08D42ECD1024B1880F0BC704700BFF5
S2144030200C00402078A4400010B50446037D042BD5
S21440303011D0072B16D0032B01D0002309E0114BEB
S21440304098470346A8B90523237520460E4B984754
S2144030500023184610BD0B4B9847034648B9052336
S2144030602375F2E7074B9847034610B909232375A3
S214403070EBE7B3F1FF3FECD1A37E43F00803A37622
S2144030800023E6E7FD574000F55840007047000033
S214403090F8B50C1E254B002908BF1C46002836D024
S2144030A0B4FA84F56D090646002D30D1037D002B19
S2144030B030D14AB11E4F07F1100E57F8043B1B683B
S2144030C0B3B97745F9D103E01A4B9847024620B387
S2144030D014B1236803B13360F282174B1A68F2606A
S2144030E01E60164B98470020F8BDDB68002BE8D0E2
S2144030F0D98A9142F9D19BB11968A1B19DB920688E
S214403100814201D00028F0D16FF00700F8BD6FF083
S2144031100500F8BD6FF00500F8BD6FF00100F8BD82
S2144031206FF00700F8BD6FF00700F8BDE4A340005D
S21440313078A44000C52F40008C49402009604000DC
S21440314070B51646037D002B3FD104460220224B25
S2144031509847054600283CD023690361E38AC3822A
S21440316001230375637D4375237A0372A37A8372C2
S214403170637A437223680360E38AABB1174B1A68DD
S214403180944209D072B1D3689C4208D053B1DA68F1
S214403190944205D01346F9E7D2681A6002E0134617
S2144031A0E268DA600023E360214601200C4B984732
S2144031B00C4BAB610C4B1A68EA601D600B4B984792
S2144031C0002306B13370284670BD6FF00E0300250D
S2144031D0F7E74FF0FF33F4E7B12940008C49402031
S2144031E0D1294000893B4000884940200960400082
S2144031F008B50022014B984708BD00BF413140004A
S21440320070B40246456A048DC16A6319581A538ED3
S21440321040F2B456B34294BFC31A831B002B02DB62
S214403220548570BC70476B1A002B03DD0023538512
S2144032301846F6E7491B51850020F2E710B50446CC
S214403240038D194489B2018540F66833994208D9FE
S214403250038520460C4B984740F2D92398420BDC16
S21440326010BD0029F5D1037D072B01D0092BF0D1E5
S21440327040F668332385ECE7A37E43F00203A3764B
S2144032802046024B9847EBE701324000F558400095
S21440329050B110B50446406808B1044B98472146E3
S2144032A00320034B984710BD704700BF192C4000C1
S2144032B0D129400048B138B50346044D1C6818462D
S2144032C0A8472346002CF9D138BD704791324000BC
S2144032D04175704738B505460320084B9847044665
S2144032E050B128686968AA68EB6820606160A2608F
S2144032F0E3606068024B9847204638BDB1294000DD
S2144033003B2E400000B10161704708B1C0F8801004
S214403310704700B1C167704708B1C0F88C1070475D
S21440332018B1027D012A08BF81617047C0F8881035
S21440333002777047037D0A2B1AD0012B18D970B537
S2144033400446406F18B10B4B984700236367206FC5
S214403350094EB047002525674FF6FF732386A06EBB
S214403360B047E06EB047A566E566A4F8645070BD09
S214403370704700BF192C4000B53240002DE9F04F91
S21440338083B0B34A136801331360B24A13780133EB
S21440339013701546B04FDFF8F0B2B04B1C68002CE7
S2144033A000F08B81002603E0E468002C00F0858165
S2144033B02B78627F9A42F7D06377227D022A19D013
S2144033C094F842300B2B6BD894F89580B8F1000FE8
S2144033D02ED0A34B984418F8012C94F894309A4277
S2144033E014D90133DBB284F894309A420ED94FF0A8
S2144033F0000857E094F84230052B00F2A8800B2BCB
S214403400E2D94FF000094FF00108A7E02046954B5F
S2144034109847002866D1002384F8943094F8953075
S214403420062B62D8013384F895304FF0000839E017
S214403430B4F93010002901DB01312186E16E89B3F1
S214403440B4F93000B4F9401088422BDB022A0ED083
S214403450B4F93C10B4F93E2002EBE1020C2B28BF35
S2144034600C238149CB5C02FA03F3A4F840300023D6
S2144034702386B4F85C30B4F84820934228BF1346FD
S2144034805B08A4F84A30618E4A0092B2934238BF35
S214403490A4F84A20A4F848102046744B984701E008
S2144034A04FF00108237D062B22D0227A12F0080F17
S2144034B052D0042B02D0072B40F08280644B1A680F
S2144034C0236AD21AD4F89010694B0B44ABFB030323
S2144034D0B2EB531F21D908F101085FFA88F84FF084
S2144034E001093BE04FF00008DCE74FF00008D9E761
S2144034F0A37E13F0100F09D0554B1B68226A9B1A07
S214403500282B03D908F101085FFA88F8206F0028B5
S21440351000F0F5804FF0000922E094F896305548C8
S21440352000FB0313ABFB0313B2EB531F02D84FF061
S214403530000913E02046504B9847002843D194F8A2
S2144035409630013384F896304FF0000906E04FF08D
S21440355000094FF0010801E04FF00009206F50B11C
S2144035603B4B1A68236AD21AB4F9403003EB430344
S214403570B2EB430F2AD2237D032B2CD0092B35D018
S214403580B8F1000F3DD1D4F80C80E37E0133DBB2B6
S214403590E376227F9A4200F28D800023E3763B70EA
S2144035A0D4F88830002B7DD02146206998473B7858
S2144035B0002B7FF4F2AE002874D026464446F4E64C
S2144035C04FF00009CAE74FF00009C7E72B4B984772
S2144035D000232367CFE71E4B1B68226A9B1A282BC3
S2144035E0CED908F101085FFA88F8C9E7184B1B687E
S2144035F0226A9B1AF02BC3D908F101085FFA88F8B3
S214403600BEE7D4F88C8020461D4B9847DEB1E36871
S214403610F360B9F1000F39D1D4F810A0D4F80C906B
S21440362021460120174B984700233B70B8F1000F06
S2144036303ED06FF00C015046C0473B78002B7FF4DD
S214403640ACAE4C46B1E6E368044A1360E1E700BF1F
S21440365084494020AE0B40207C4940208049402091
S21440366088A440003D5E400068A44000B55C400031
S214403670B84C0A00F8240100AD5D4000B532400069
S21440368035334000D1294000D34D6210616AE06C6A
S214403690238B0193E38A0093231D2246DFF87C9018
S2144036A0C847B9E72046194B9847264644467CE625
S2144036B04C467AE62646444677E6154B1C680CB3DD
S2144036C00025144EDFF85880134F06E0E268104B92
S2144036D01A600DE02546E468A4B1226A33689B1A56
S2144036E0F02BF7D92046C047002DEFD0E368EB60BB
S2144036F0D4F80C9021460120B8474C46ECE74FF0F2
S21440370000093DE703B0BDE8F08F00BFF558400024
S2144037109049402084494020D1294000FD5B40002C
S2144037203533400010B50C4602688A4209D072B163
S214403730D368994208D053B1DA68944205D013460C
S214403740F9E7D368036002E01346E268DA600023D4
S214403750E36020460A4B9847237D0A2B05D0012B71
S21440376003D0A37E13F0010F03D100232375E38219
S21440377010BD43F00203A3762046024B9847F4E779
S21440378035334000F558400030B583B0044621B18B
S214403790037D042B0DD0072B0BD0237D012B70D03F
S2144037A0002B4FD0022B00F087802046484B98478E
S2144037B065E0636FD3B1238B0193E38A0093231DA7
S2144037C02246616AE06C434DA8472046424B9847E4
S2144037D0424B1A6894420FD0A2B1D3689C420ED096
S2144037E083B1DA6894420BD01346F9E7228D40F64F
S2144037F068339A42DFD1D0E7D2681A6002E01346B7
S214403800E268DA600023E3600122354B1A70237DBC
S214403810042B09D0334B1B689C420FD02146012015
S214403820314B984700202AE00A2323752F4B1A680D
S214403830E2601C602E4B9847002020E02D4B9847B6
S21440384000201CE0E38AABB12B4B1A68944209D0A7
S21440385072B1D3689C4208D053B1DA68944205D01E
S2144038601346F9E7D2681A6002E01346E268DA6067
S2144038700023E360214601201B4B9847002003B0FD
S21440388030BD1E48011D1030002551F8043B1B6812
S21440389033B19A6F944208BF9D67DB68002BF8D11E
S2144038A08142F2D121461648164B984721460220BF
S2144038B00D4B98470020E2E721460848114B9847B1
S2144038C00120074B18702146074B98470020D6E743
S2144038D029304000FD5B40003533400080494020A1
S2144038E07C49402094494020D129400090494020BE
S2144038F009604000D95240008C49402078A44000DE
S214403900884940202537400008B5037D012B03D069
S214403910837E43F0100383760121014B984708BD10
S2144039208937400010B5084642B114461189064B07
S21440393098472046054B9847002010BD0BB1002005
S21440394010BD034B984710BD3D324000192C400037
S21440395009394000F8B50446466F777B0023436735
S214403960D0F88050E5B1324601460069A847054682
S214403970F5B917F0200F21D0238D40F668329342D8
S21440398001D001332385D4F88060BEB100231A46A7
S21440399021462069B04710F10D0F08BF05460DE0DF
S2144039A00023324601461846054DA8470546DFE740
S2144039B015F10D0F02D066676FF004052846F8BD76
S2144039C0253940002DE9F8431F4A13780133137018
S2144039D0DFF8888016461D4D1D4FD8F80040B4B914
S2144039E0BDE8F88343F00203A3762046194B984778
S2144039F0A37E23F00303A37612E023F00803A37606
S214403A002046154B98470FE0E468002CE8D0337802
S214403A10627F9A42F8D06377A37E13F0010FE1D11C
S214403A20A37E13F0080FE8D1D4F80C90636F43B12F
S214403A3000232B702046B8472B78002BCDD14C4620
S214403A40E3E74C46E1E700BFAE0B40207C49402010
S214403A5055394000F5584000293040008049402004
S214403A6008B5074B9847074A13780133DBB2137003
S214403A7013F0010F00D108BD034B9847FBE700BF8A
S214403A80C5394000AD0B40207D3340002DE9F0475E
S214403A9082B00446037D0A2B1CD00D46D0F84C80DD
S214403AA0D0F82490D0F88C600769002B3DD1B0F850
S214403AB016A0BAF1000F42D0274B1A68904212D097
S214403AC0BAB1D368984211D09BB1DA6894420ED00E
S214403AD01346F9E701462148214B984721460120E5
S214403AE0204B98471EE0D2681A6002E01346E26810
S214403AF0DA600025E560AA46E06E08B11A4B9847A2
S214403B00A06E08B1184B9847206F08B1164B9847DF
S214403B10BDB921460120134B98471EB16FF00C01EA
S214403B203846B04702B0BDE8F087B0F816A0014668
S214403B300E480B4B984701220D4B1A70DCE70025C8
S214403B40DAE7238B0193CDF800A0231D2246494691
S214403B504046084DA847DCE78C4940209049402025
S214403B6025374000D1294000B532400080494020EA
S214403B707C494020FD5B400008B50121014B984739
S214403B8008BD00BF8D3A400008B50846024B98472E
S214403B906FF00C0008BD00BF793B400079B170B5AE
S214403BA004460846064E03E0C568B047284628B196
S214403BB0026823689A42F7D0C068F8E770BD70473D
S214403BC0793B400038B50D4B1B68ABB10C4A1568C5
S214403BD000210C4601E0DB684BB11A7D8242FAD1E7
S214403BE01A6AAA1A8A42F6D311461C46F3E71CB153
S214403BF000212046034B984738BD00BF80494020EF
S214403C00844940208D3A4000F8B5054601203F4B98
S214403C109847044650B39822002120463C4B98478C
S214403C20657540F66833A4F8603063852385FF22C7
S214403C30A2724FF4067262860622A4F84020E287FB
S214403C404FF6FF7222860122A4F84820314A1268B5
S214403C502262314A12786277A4F84A302F4BC4F871
S214403C6080302F4BC4F890302046F8BD2D4B1B6853
S214403C7083B1284A1068002101E0DB6833B11A6A34
S214403C80821A8A42F9D311461C46F6E714B12046FA
S214403C90254B984701201D4B984704460028BAD12B
S214403CA00920224B98470120184B98470446002885
S214403CB0B1D108201D4B98470120144B9847044625
S214403CC00028A8D16BB2002BACBF28467F20184BEB
S214403CD01B68104A1768002100E0DB6853B15E7D20
S214403CE08642FAD81A6ABA1A8A42F6D3304611463B
S214403CF01C46F2E714B120460B4B98470120034B75
S214403D00984704460028AFD085E700BFB129400059
S214403D10F570400084494020AE0B402025394000D5
S214403D2000DD6D0090494020793B4000C53B400097
S214403D308049402008B54020014B984708BD00BF49
S214403D40093C4000034B1868034A12681044186048
S214403D50704700BF080040208449402010B5044604
S214403D600846074B984738B1C08C38B1283880B2DF
S214403D70A04228BF204610BD204610BD204610BD9C
S214403D805D1B400008B370B50446036803B970BDB8
S214403D900E460E4B19680E4DA8470E4B1968204626
S214403DA0A847002EF3D03368002BF0D00A4B1B6890
S214403DB01BB9ECE71346002AE9D0DA681D6820688C
S214403DC08542F7D131681960F4E770478049402052
S214403DD09D3B40008C494020884940200D4B1A6846
S214403DE07AB10D4B1B880D4909888B4209D310B414
S214403DF05C1C094804805B1ADBB2D05C5DF8044B5F
S214403E007047074B1B6804490A88501C08801344B7
S214403E10187D7047E40B4020D80B4020E00B402034
S214403E20DC0B40201F4B1B88002B39D02DE9F0417E
S214403E30074600221C4B1A801A4E1C4DDFF868803D
S214403E403488B8F80030A34228D2A8470128F7D0D3
S214403E5020B3022819D1A84704281FD1124B1B882B
S214403E600233A3421ADCA8470402A4B2A84744EA95
S214403E7000039BB25A1E92B240F2B45140F2B35085
S214403E80824288BF0B467B86D8E7A847012805D9DB
S214403E90054A1388023B18441080CFE7BDE8F081FE
S214403EA0704700BFE80B4020D80B4020DD3D400067
S214403EB00E4B1B7813F0100F16D010B50446837EB9
S214403EC013F0100F06D1D0F88C301BB16FF00E01F6
S214403ED00069984721460648064B984721460120E8
S214403EE0054B9847012010BD00207047D00B40205E
S214403EF08049402025374000D12940002DE9F04731
S214403F0005468946C3689889294B984710F0010FA3
S214403F1027D1B9F1000F49D0D9F80C202B89516828
S214403F205B1A244909680B44B9F808105B1A002B41
S214403F3004DB1F4E204FDFF87C8028E04C461D4BAC
S214403F401968E3685A682B890B449B1A002B05DDD9
S214403F50521A91B229816868184B98472C60BDE880
S214403F60F0874846164B98470024F7E7D9F80040B4
S214403F704846B847D4B1E2682B89D8F800100B44BD
S214403F8051685B1A21895B1A002BD8DBA1469089C1
S214403F90B04710F0010FE9D0D5F80CA0BAF80C40A5
S214403FA00120B0472043AAF80C00DFE70024D5E7FD
S214403FB059104000D40B402091324000C52D40009F
S214403FC0B53240002DE9F0470446984B1B7813F075
S214403FD0100F00F05281B0F85C50406D226D944B4B
S214403FE01B68D11A002928DB9A421BD0914A1268D6
S214403FF090421DD08F4B1B68616C5A1A002A3FDDD9
S214404000012A03D4E26C9A1A002A69DD20468A4BBC
S2144040109847A36E002B00F02181864EDFF8388249
S214404020864FE0E0834A1268821A002ADEDA04E00D
S214404030834A1268D289AA42DCD9814A1268D28958
S21440404091B2A4F85C20B4F85E608E4238BFA4F803
S2144040505E202365774B1B68636549B994F89530B5
S214404060002BC7D184F89430012384F89530C1E7FB
S21440407094F89530002BBDD0002384F89530B9E7EE
S214404080704A128832B92844B4F85C20656D2A44D8
S214404090904203D0002384F84330BAE7228E12F4CD
S2144040A0004FF7D18B42F5D194F84320531CDBB236
S2144040B09A4238BF84F8433094F84330032B09D9EA
S2144040C0B4F84820638E13449BB29A42A1D2A4F817
S2144040D048309EE7032B9CD120465B4B984798E799
S2144040E0A27E12F0040F06D022F00402A276B4F8A4
S2144040F04A20A4F84820002184F84210B4F93C0035
S214404100E28F02EBE002A4F8402084F84310636498
S214404110237D032B0CD9B4F84820B4F84A30934298
S2144041203AD9638E13449BB29A4238BFA4F84830BB
S214404130E36E002B2CD0DFF82081404F3D4EDB68ED
S2144041405868C0478146E36E1D89DB689889B84742
S2144041503368ED1A4D4410F0030018BF01200544A3
S214404160002D25DCE56E2B68E3666868374B98477C
S214404170B4F86230181AA4F86200354A2B891188C0
S2144041800B4413802846334B9847E36E002BD6D11A
S2144041904FF6FF73238610E0638E03FB03F393FB17
S2144041A0F2F313449BB29A42C2D2A4F84830BFE717
S2144041B0E36E002BECD0002323860023E37628E72B
S2144041C06868224B9847B4F86230181AA4F8620020
S2144041D01F4A2B8911880B44138028461D4B98474D
S2144041E0A36E002B3AD03568DB685868C0478146D6
S2144041F0A36EB3F808A0DB689889B847A5EB0A0514
S214404200A5EB090510F0030018BF01202D1A002D5C
S21440421024DB3368E26C9B1A002B1FDCA56E2B68F0
S214404220A366002BCCD1A4F86430C9E7B40B402079
S214404230D40B4020B00B4020495840005910400055
S214404240DC0B4020EA0B4020515D4000252E40000C
S214404250C80B4020913240005F104000B4F86030F8
S214404260A24A12881344A4F86030636B2BB1A26B49
S2144042709F490968521A002A23DB9E4B1B88002B55
S21440428000F05A82227D062A00F25682616A9A4AD5
S21440429012688D1A012D05D4C2F10100C31A0B44D1
S2144042A0002B2DDD531A002B54DB238DC3F1010365
S2144042B013445B1A002B52DD2046904B9847BDE8CE
S2144042C0F087B4F93C108E4A1268D31AA3EBE10388
S2144042D09BB218B25A1812B2A28700280DDBB4F966
S2144042E03E30A3EBA30303449BB2E38703EBE20316
S2144042F0A4F8403000236363BFE75B4218B2EEE7A2
S214404300804B58682B46428995421EDD0189491BE1
S21440431089B200259B1A01814581006842899A42EC
S214404320F8DB5B4219B2784B9847626A7549724827
S21440433003680D892B449B1A0B81CB6802605A6038
S214404340616A531A002BB0DAB6E7694209B26E4B7F
S2144043509847EAE7A37E43F00203A376ACE78A4297
S21440436013D02046654B9847266F002E00F02C81D0
S214404370F1684A68604B1868824200F02B8100273B
S21440438000F1FF3E00F1010C47E15E4B1D89DB6802
S21440439098895E4B984710F0030318BF01232B44BF
S2144043A09BB2544A1380228D9A4217D3236F002B18
S2144043B000F0EC81534BDB689889544B984710F0DB
S2144043C0010F41D0206F002800F0E081504D036877
S2144043D02367A847206F0028F9D1D7E1494BDB680F
S2144043E098894A4B984710F0010F1FD1454B228DB4
S2144043F01A81DB689889454B984710F0020F03D026
S214404400404A1389013B13813E4D29896868414BD8
S21440441098472E89EB6898893C4B984710F00300E4
S21440442018BF01200644334B1E80BFE7354BDE687D
S214404430B5892846354FB84700F03E00B84725F4C2
S2144044407C550543B581D1E7D4F87090B9F1000F9B
S21440445000F09A81D9F80C20264B1B88264909681B
S2144044600B4451685B1AB9F808105B1A002BC0F26F
S214404470BF81264EDFF88C801E4F14E0D9F80050DE
S2144044804846234B9847002D00F07E81EA683B88DB
S214404490194909680B4451685B1A29895B1A002B35
S2144044A0C0F2A781A9469089B04710F0010FE5D029
S2144044B0D8F80C309889B04710F0020FDED1D8F803
S2144044C00CA0BAF80C500120B0472843AAF80C00BC
S2144044D0B8F80850D8F80C309889B04710F0030068
S2144044E018BF012005443D80C8E700BFC80B4020E8
S2144044F0B00B4020EA0B4020D40B402049584000E7
S21440450084494020B80B4020F92B40005910400009
S21440451091324000C52D4000904B196000236B60DF
S214404520EB689889B84710F0010F07D08C4A13788B
S21440453043F020031370237D042B32D02B6823676F
S2144045402846884B9847256F002D2DD0EB685A6833
S214404550616A8A4228D1C9F800202E899889B847CE
S214404560636A1E4410F0030018BF012006446662CA
S2144045702E89EB689889B84710F0030018BF0120D1
S2144045803044238D181A20852046C04769680B8919
S214404590002BC5D0714B18680028BDD0724B984789
S2144045A0BCE707232375C9E7A37E13F0010F06D0A7
S2144045B023F0010343F00203A376BDE8F08743F0FF
S2144045C00103A376BDE8F0876848694B98472067A3
S2144045D0BDE8F08735460026644B1A892B899A42F7
S2144045E04FD96248624B98470346002849D036B1B7
S2144045F03060294618465F4B9847BDE8F0872067ED
S214404600F7E7831A002B2FDB3568002D36D0E96894
S2144046104A6837468242DFD02E46002FF1D0FB68EC
S2144046205B68AEEB0303002BEEDBACEB0203002B28
S214404630EADC4E484E4B9847044610B3FB68596830
S2144046404D4B1B683A890A44D21A002A05DD5B1A8C
S21440465099B239817868494B98473C603146204644
S214404660444B9847BDE8F0874048414B984740B197
S214404670206731463F4B9847BDE8F087821A002AAC
S21440468001DCBDE8F08788893D4B984710F0010F64
S214404690F7D13648364B984730600028F1D0F3685B
S2144046A05968354B1B6832890A44D21A002A05DD00
S2144046B05B1A99B231817068304B9847314B1B88F2
S2144046C02D4A12681344626A9B1A228D9B1A002B4D
S2144046D0D7DD3368DB689889294B984710F0010F7F
S2144046E01BD13268244B1968238D5B1A616A0B44D0
S2144046F01381336819895868204B984733681C895A
S214404700DB6898891E4B984710F0030018BF0120BD
S21440471004441C4B1C80BDE8F0873368DF68BD89C5
S2144047202846DFF85C80C04700F03E00C04725F4CE
S2144047307C550543BD81D4E70F4B1B68626A991AC6
S214404740002905DB01339B1A228D9B1A002B98DD2E
S214404750A37E43F00203A376BDE8F087CC0B40204F
S214404760D00B402091324000452E4000B80B4020F0
S214404770D5324000FD3E4000D40B4020C52D4000C1
S21440478059104000EA0B4020002525672E4B1A881A
S2144047902E4B1B6813446362238D9B1A2385204649
S2144047A02B4B98472B4B5B681A8922B12A4A1360D9
S2144047B00022284B5A60274BDB689889274B98473E
S2144047C010F0010F04D0264A137843F020031370EC
S2144047D0256F002D3FF4E8AEEB685A68616A8A425E
S2144047E07FF4E2AEDFF864901C4FDFF86480B2E6F8
S2144047F04D46164B1968EB685A68134B1B880B449A
S2144048009B1A002BC1DD134B521A1A81DB6898891C
S214404810124B984710F0020F03D00E4A1389013B03
S21440482013810C4E318970680E4B98473789F36870
S21440483098890A4B984710F0030018BF0120074498
S214404840014B1F80A1E700BFEA0B4020D40B40205D
S21440485001324000B80B4020CC0B4020591040009D
S214404860D00B4020C52D40002DE9F04383B00446D0
S2144048704268854B1A604389132B14D9834B1968B9
S2144048805869834B984770B9804B5B6903F0F003D7
S214404890E02B08D07F4B2289191D00910621204627
S2144048A07D4DA84728B120467C4B984703B0BDE8CD
S2144048B0F083754B1B689889794B9847800A00F0BF
S2144048C0FC001328EFD980B223898342EBD3A0F1B2
S2144048D014039BB2734A13800021734A11606289A5
S2144048E0824241D3714A138041422046704B9847DA
S2144048F0654D2F6838886A4EB04738802F6878886C
S214404900B04778802F687868DFF8E081C0477860E5
S214404910684B18602F68B868C047B860664B186028
S2144049202F68F889B047F8812B689889B0475FFAB6
S21440493080FE0EF03F02614B1A701EF0030318BF54
S214404940012321890B4499B25D4B19805D4B186851
S21440495000287DD02F683E884C4BD3F810C0D3F843
S21440496014800546002222E06FF013012046504E88
S214404970B04763894D4A13804A4A1588ED1AADB24E
S2144049805B4219B22046B04720684389AB428AD37F
S2144049904268454B1A60694209B2B04723895D1B9D
S2144049A02581A5E7EB682A46002B51D01D462B8B68
S2144049B0B342F7D1B5F816907B889945F2D16B682B
S2144049C06345EFD12B684345ECD122B1EB68D36009
S2144049D0E8603C4B1D60002D3AD03B4A00231360F4
S2144049E0218911815460D760384A1360384A137061
S2144049F0384A13801EF0080F03D0637B43F0010350
S214404A0063736B6F002B00F03F812846324B98470C
S214404A1010F10D0F08D06B6F002B00F03581284B3E
S214404A201B88002B00F030816B8D002B00F0288116
S214404A3000232A4A1360254A1360234B58680028EF
S214404A403FF434AF154B984700221F4B5A602DE772
S214404A50234B1868002877D00B4B1F683A880B4BBF
S214404A60D3F81080D3F814C044E01EF0010F02D0F3
S214404A701C4B1B680362002962D0837E43F002030E
S214404A808376194B98475BE0DC0B4020681E40203D
S214404A90E51E4000781E402089114000192C400039
S214404AA059104000E80B4020E40B4020E00B40202B
S214404AB0F92B4000D40B4020B00B4020B40B4020D4
S214404AC0EA0B402080494020B80B4020CC0B4020C9
S214404AD0D00B4020C80B4020553940009449402018
S214404AE09049402084494020F55840005F104000DF
S214404AF0C06848B3038B9342FAD1C58A7E88AE42DB
S214404B00F6D146684645F3D106686645F0D11EF0B4
S214404B10040F15D11EF0020FA7D08F4A1668426ABE
S214404B20B21AA8D4078DD21B002AA4DC8B4A019364
S214404B30009513460432314489480068894DA84799
S214404B402046894B9847B1E6884BD3F800C0BCF165
S214404B50000F00F07383864B1F687888854B5E692C
S214404B606546002205E0EB682A46002B00F0668387
S214404B701D46EB8A8342F6D12B68B34202D00BB176
S214404B80002DF0D1002D00F059832AB1EB68D36098
S214404B90C5F80CC0754B1D601EF0040F5ED11EF0AC
S214404BA0100F4DD11EF0020F58D0687D724B9847BB
S214404BB00646002856D06F4B5A6902601B69436010
S214404BC0EB8AC3826A4F3B681B88038303230375C3
S214404BD0DFF88481D8F8003001334362C362674B04
S214404BE098477065F0647064B065D8F80030013B53
S214404BF033652B693361B5672B7A03F00C03337248
S214404C005F4B1A68F2601E605E4B984701225E4B0F
S214404C101A7030465D4B98473B68DB89A6F85C3097
S214404C20A6F85E30311D708E594B9847708612211B
S214404C303046584B9847F0B93046574B98470DE0AA
S214404C40464A454B18683B8801937B880093134639
S214404C500432014442480068424DA8472046424B31
S214404C60984723E6AB69002BF8D04FF0FF3200217F
S214404C7028699847F2E700213046484B9847EDE7C9
S214404C802846474B9847D3E6464B1D60464B1C7814
S214404C9014F0040F37D02B7D022B20D06A6A2E4B9F
S214404CA01B689A4220D09B1A03D42A8D9B1A002B4D
S214404CB024DD3E4B1B7813F0080F00F05982D5F8E0
S214404CC08C301BB16FF00D012869984729462C4857
S214404CD0374B984729460120364B9847A8E6EA6C5A
S214404CE01F4B1B689A42E4D1304A137843F00803BE
S214404CF01370AB7E23F00103AB76DAE7AB7E43F06E
S214404D000203AB76D5E714F0020609D02B7D023BB2
S214404D10DBB2012B04D9AB7E43F00203AB76C8E787
S214404D20AB7E13F0100F02D1234B1B682B6200237F
S214404D3085F896302846154B98472B7D023B072B27
S214404D40B7D8DFE813F03B00B100130123019D0103
S214404D501301CA01FC0100BFD40B4020781E40203E
S214404D60B00B4020FD5B4000192C40008849402095
S214404D70DC0B4020681E4020093C4000453D40007A
S214404D8080494020096040007C494020253E400044
S214404D905D3D400039574000F55840008D3A400090
S214404DA04958400094494020B40B4020D00B402046
S214404DB025374000D12940008449402004F01203A2
S214404DC0122B20D014F0100F3FF473AF984B1B6893
S214404DD0984A99490888994909681C8801945B88CB
S214404DE0009313460432014495480068954CA0470A
S214404DF095F84230052B3FF65CAF00232B862846BD
S214404E00914B984755E76A6C01328D4B1B689A4226
S214404E10D8D18A4B1B68591C6962E9626A64844A25
S214404E201268D289A5F85C20A5F85E20013B2B6568
S214404E3004232B75E918688E844B98476886430090
S214404E4041F21C12934238BF13468000834228BF6B
S214404E500346A5F84830B5F86230013BA5F8623005
S214404E60E86EC8B9A86E0368AB66794B9847EB6E98
S214404E70ABB94FF6FF732B86D5F884303BB1002292
S214404E8029462869984710F10D0F3FF4D1ADAB7E07
S214404E9043F00203AB760CE70368EB66E5E70023D6
S214404EA02B8685F84230E7E714F0100F50D0644B5D
S214404EB018686B6CDB43C34239D4EB6CC31A002BC7
S214404EC035DC04232B75AB6F53B19B6943B100228D
S214404ED029462869984738B110F10D0F3FF4A8AD20
S214404EE028465C4B9847A3E528465B4B98475B4B68
S214404EF01B8813B1013B594A13806A8E530041F216
S214404F001C118B4238BF0B469200934228BF134673
S214404F10A5F84830524B1B7813F0200F3FF4C9AE2B
S214404F20AB7E43F00203AB7607232B75C1E6404BBE
S214404F301B68404A40490C88404909681E880196CB
S214404F405B8800931346043221443E4CA047B0E6AB
S214404F50002E3FF4AEAE6B6A013B384A126893426D
S214404F607FF4A7AE28463F4B9847A2E628463A4BE2
S214404F7098473B4B1B7813F0200F3FF49AAEAB7E1E
S214404F8043F00203AB7607232B7592E62846324B56
S214404F909847334B1B7813F0200F35D0324B1B7895
S214404FA013F0100F29D0EA6C254B1B689A4224D187
S214404FB0AB6E13BBAB7E43F00203AB7628462B4B5F
S214404FC098472B4B1B68AB420FD1EA68284B1A60B8
S214404FD00122284B1A700A232B75274B1A68EA6061
S214404FE01D60264B984764E61346002BF0D0DA68DF
S214404FF0AA42F9D1D268DA60EAE7AB7E43F0020310
S214405000AB7608232B7554E6174B1B7813F0100F1E
S2144050103FF44FAEEA6C0A4B1B689A427FF449AEA7
S214405020AB6E002B7FF445AE06232B7541E600BFE2
S214405030DC0B4020781E4020EA0B4020D40B40205A
S214405040B00B4020FD5B4000B55C40005D3D40003D
S21440505091324000793B4000C53F4000C80B40209D
S214405060D00B4020F15C4000B40B4020353340006C
S214405070804940207C4940209049402009604000BB
S21440508028467E4B98477E4B1B7813F0200F3FF404
S21440509010AEAB7E43F00203AB762846794B98477A
S2144050A0794B1B68AB4212D1EA68774B1A600122F3
S2144050B0764B1A700A232B75754B1A68EA601D608A
S2144050C0744B9847F5E5DA68AA4203D01346002B9E
S2144050D0F9D1ECE7D268DA60E9E72846674B9847AB
S2144050E06D4B1B7813F0100F3FF4E3ADEA6C6B4B3F
S2144050F01B689A427FF4DDADAB6E002B7FF4D9ADD2
S2144051002846604B9847604B1B68AB420FD1EA6815
S2144051105D4B1A6001225D4B1A700A232B755C4B5F
S2144051201A68EA601D605B4B9847C2E51346002B41
S214405130F0D0DA68AA42F9D1D268DA60EAE72846BF
S2144051404E4B9847544B1B7813F0100F3FF4B1ADBD
S214405150EA6C524B1B689A427FF4ABADAB6E002BA9
S2144051607FF4A7AD464A137843F010031370A0E5CA
S2144051704B4B1A885AB1EB6F33B12946286998478A
S21440518010F10D0F3FF454AC0022454B1A802846D0
S214405190444B984700287FF44BAC434B1A689AB16F
S2144051A0AB7E13F0100F27D1D5F88040002C2AD0C4
S2144051B0002329462869A04710F10D0F3FF438AC6C
S2144051C010B1394B1B686B672D4B1B7813F0200FC3
S2144051D005D06B6FEBB15A7B42F020025A73002227
S2144051E0324B1A6028462F4B984700287FF420AC55
S2144051F028462F4B98471BE410462E4B9847284688
S2144052002D4B984714E40023294618462B4CA047BC
S214405210D2E72B8D40F66832934201D001332B857E
S214405220D5F88040002CDAD000231A462946286953
S214405230A04710F10D0FD2D1FFF7FABB204B1B68E9
S2144052409889204B984710F0040F11D11C4B1B68CF
S2144052501D4A1E4908881E4909681D8801955B88B5
S21440526000931346043201440C480068194DA84781
S2144052702046104B9847FFF719BB00BFC53F40007C
S214405280D00B402035334000804940207C494020A8
S2144052909049402009604000B40B4020B00B4020AD
S2144052A0C80B4020B13E4000CC0B402094494020E3
S2144052B0F5584000192C4000793B40002539400005
S2144052C0DC0B402059104000781E4020EA0B40205E
S2144052D0D40B4020FD5B4000024A137843F0100395
S2144052E013707047D00B40202DE9F04780460F469C
S2144052F0164699469DF820A00320244B984704461E
S214405300002839D00AF00105AD0080F80AA0002335
S214405310036047603B895B1B0381142138461C4B66
S214405320984768BB6368D3F804A0C4F80CA0B8F8E4
S2144053301600184FB847AAF80000D4F80CA0B8F8E2
S2144053401800B847AAF80200D4F80C804846124B1A
S2144053509847C8F80400D4F80C80AD08053546EAEE
S2144053600535A8B2B847A8F80C00E36800229A743E
S214405370DA742046BDE8F0873846084B9847F8E789
S2144053802046074B98470024F3E700BFB12940006A
S214405390F92B4000591040005F104000192C400087
S2144053A0913240002DE9F84306460C4699461432A1
S2144053B01144002289B20120144B9847804610B30E
S2144053C04568F08A124FB8472880308BB8476880C7
S2144053D0C5F80490706A0F4B9847A860A00805303F
S2144053E0000300F4704040F01000B847A881708D6C
S2144053F0B847E88100232B746B74AB74EB74728DE2
S214405400736A1344F3624046BDE8F883712C40004B
S214405410591040005F1040002DE9F04F8BB0448E8D
S214405420B0F85EA04FEA5A0AA24528BFA246BAF193
S214405430000F08BFA246002900F047810D46047DB4
S214405440A11EC9B2022902D9072C40F04881059511
S214405450099393468146002A00F05181B0F86030A7
S21440546093420CD3B0F86230072B0FD8B0F8627076
S214405470836E0693002B00F03581069A0EE0837EFD
S21440548063F07F0383764FF0FF307DE0837E63F0EA
S2144054907F0383764FF0FF3076E01A461368002B82
S2144054A0FBD1164606929846917A01F0010312897E
S2144054B0AAEB0201A1EB830189B2B9F864300793E5
S2144054C01C46F3B15B4528BF5B468B42A8BF0B46E4
S2144054D0E41AA0B20390C91A89B207930798002924
S2144054E018BF584500D282B9079D00230893AB45A4
S2144054F040F295804FF00008CDF80C80CDF8108033
S2144055004BE0079B03934646E8E70646ABEB0005B1
S2144055108D42A8BF0D46ACB2002204207E4B984771
S2144055200890002800F0E48043891B1B9BB203933D
S21440553004814481224605993546314406464068F2
S214405540764B98473046764B98470744BFB22C4434
S214405550A5B2069ECBE7DDF810803046714B9847E3
S21440556099F81A3063F07F0389F81A30089B13B114
S21440557018466C4B9847B8F1000F00F0AD80404697
S214405580694B98474FF0FF300BB0BDE8F08F049062
S2144055902544ADB20396AB4532D9ABEB0504A4B275
S2144055A0544528BF5446A4B20022514610465A4B92
S2144055B098470646002800F08280B0F80A800481AA
S2144055C044812246059B59194068544B98473046BB
S2144055D0534B98470744BFB2082FBCD8D9F8583029
S2144055E0002200922B4431464846504EB04706466D
S2144055F0002867D0049B002BC9D0039B1860C7E7E0
S2144056004346DDF810801C1BA3B20393079B0BB3E5
S214405610069B5C68CCB1414DDDF81CA003E04FF022
S2144056200008F3E71C462389534423812368002B54
S214405630F8D163896068524605991844A84763893B
S214405640534463812368002BECD1069A138907994B
S21440565019441181BDF80C30A9F86430089D45B155
S2144056602946069C6068324B984723892A8913440A
S2144056702381069BC3B1069BC3F80080D9F85830F7
S2144056805B44C9F85830B9F86030A3EB0B0BA9F867
S21440569060B0A9F86270DEB1F468DCB1099B13F023
S2144056A0020F04D000206FE7C9F86880E6E7A589B6
S2144056B00820204B98472843A081002064E7DDF867
S2144056C010804DE7DDF810804AE76FF00F005BE78B
S2144056D0002059E7002057E74FF0FF3054E76FF0BF
S2144056E00A0051E71E46039307931D460893FEE6BD
S2144056F099F81A3063F07F0389F81A303BE7B0F820
S2144057006270836E06930BB1069AC7E607920392C1
S2144057101E469846089379E7712C4000C16F4000BA
S214405720252E4000192C4000B5324000E95240007A
S214405730452E400059104000B0F86230072B02D981
S21440574011F0010F1ED070B582B00D46044601F030
S2144057500203C1F34006002B4FF0000214BF0421A1
S21440576011461046224B9847014690B10096A36DCD
S2144057702A4620461F4EB047014688B1A26EBAB9A7
S214405780A06619E0837E63F07F0383764FF0FF3098
S2144057907047A37E63F07F03A3764FF0FF3024E08C
S2144057A0A37E63F07F03A3764FF0FF301DE01A46DA
S2144057B01368002BFBD111600023A4F8643015F069
S2144057C0030F02D0A36D0133A36515F0010F03D07C
S2144057D0A37E43F02003A3764868074B9847B4F867
S2144057E062301844A4F86200002002B070BD00BFCA
S2144057F0712C4000E9524000252E400070B5054609
S214405800846E0CB90AE01C462368002BFBD1E36883
S21440581098890B4B984710F0070F04D00121284673
S214405820084B984770BDE668B4890120044B9847FA
S2144058302043B081AB7E43F02003AB76002070BDA2
S21440584059104000395740002DE9F04385B00446D2
S214405850C06C224B98470346002211462046204DF6
S214405860A84750B30546D0F80480261D30461D4B49
S2144058709847074640B32A8900962346062128467D
S214405880DFF86C90C847A8F81000A37A0297062263
S2144058900192627A0092324621462846124EB0471E
S2144058A006462846114B98479EB9A37E23F003032D
S2144058B0A376304605B0BDE8F083A37E43F00303ED
